{
  "contractName": "ConsentContract",
  "abi": [
    {
      "inputs": [],
      "payable": false,
      "stateMutability": "nonpayable",
      "type": "constructor",
      "signature": "constructor"
    },
    {
      "payable": false,
      "stateMutability": "nonpayable",
      "type": "fallback"
    },
    {
      "constant": false,
      "inputs": [
        {
          "name": "fName",
          "type": "string"
        },
        {
          "name": "lName",
          "type": "string"
        }
      ],
      "name": "createProfile",
      "outputs": [],
      "payable": false,
      "stateMutability": "nonpayable",
      "type": "function",
      "signature": "0xba1feb8a"
    },
    {
      "constant": false,
      "inputs": [
        {
          "name": "partyName",
          "type": "string"
        }
      ],
      "name": "createParty1A",
      "outputs": [],
      "payable": false,
      "stateMutability": "nonpayable",
      "type": "function",
      "signature": "0x1165724a"
    },
    {
      "constant": false,
      "inputs": [
        {
          "name": "partyName",
          "type": "string"
        },
        {
          "name": "closeTimeInMinutes",
          "type": "uint256"
        }
      ],
      "name": "createParty1B",
      "outputs": [],
      "payable": false,
      "stateMutability": "nonpayable",
      "type": "function",
      "signature": "0x19681632"
    },
    {
      "constant": false,
      "inputs": [
        {
          "name": "partyName",
          "type": "string"
        },
        {
          "name": "maxNumberOfGuests",
          "type": "uint256"
        }
      ],
      "name": "createParty1C",
      "outputs": [],
      "payable": false,
      "stateMutability": "nonpayable",
      "type": "function",
      "signature": "0x651363e9"
    },
    {
      "constant": false,
      "inputs": [
        {
          "name": "partyName",
          "type": "string"
        },
        {
          "name": "closeTimeInMinutes",
          "type": "uint256"
        },
        {
          "name": "maxNumberOfGuests",
          "type": "uint256"
        }
      ],
      "name": "createParty1D",
      "outputs": [],
      "payable": false,
      "stateMutability": "nonpayable",
      "type": "function",
      "signature": "0x249e767f"
    },
    {
      "constant": false,
      "inputs": [
        {
          "name": "partyName",
          "type": "string"
        }
      ],
      "name": "addGuestToParty",
      "outputs": [],
      "payable": false,
      "stateMutability": "nonpayable",
      "type": "function",
      "signature": "0x3efa9adf"
    },
    {
      "constant": false,
      "inputs": [
        {
          "name": "partyName",
          "type": "string"
        }
      ],
      "name": "ownerConsents",
      "outputs": [],
      "payable": false,
      "stateMutability": "nonpayable",
      "type": "function",
      "signature": "0xfc51e097"
    },
    {
      "constant": false,
      "inputs": [
        {
          "name": "partyName",
          "type": "string"
        }
      ],
      "name": "ownerCancels",
      "outputs": [],
      "payable": false,
      "stateMutability": "nonpayable",
      "type": "function",
      "signature": "0x0159a76c"
    }
  ],
  "bytecode": "0x608060405234801561001057600080fd5b50612e53806100206000396000f3fe608060405234801561001057600080fd5b50600436106100a5576000357c0100000000000000000000000000000000000000000000000000000000900480633efa9adf116100785780633efa9adf146103b1578063651363e91461046c578063ba1feb8a14610531578063fc51e09714610683576100a5565b80630159a76c146100a75780631165724a14610162578063196816321461021d578063249e767f146102e2575b005b610160600480360360208110156100bd57600080fd5b81019080803590602001906401000000008111156100da57600080fd5b8201836020820111156100ec57600080fd5b8035906020019184600183028401116401000000008311171561010e57600080fd5b91908080601f016020809104026020016040519081016040528093929190818152602001838380828437600081840152601f19601f82011690508083019250505050505050919291929050505061073e565b005b61021b6004803603602081101561017857600080fd5b810190808035906020019064010000000081111561019557600080fd5b8201836020820111156101a757600080fd5b803590602001918460018302840111640100000000831117156101c957600080fd5b91908080601f016020809104026020016040519081016040528093929190818152602001838380828437600081840152601f19601f820116905080830192505050505050509192919290505050610a9e565b005b6102e06004803603604081101561023357600080fd5b810190808035906020019064010000000081111561025057600080fd5b82018360208201111561026257600080fd5b8035906020019184600183028401116401000000008311171561028457600080fd5b91908080601f016020809104026020016040519081016040528093929190818152602001838380828437600081840152601f19601f82011690508083019250505050505050919291929080359060200190929190505050610fa8565b005b6103af600480360360608110156102f857600080fd5b810190808035906020019064010000000081111561031557600080fd5b82018360208201111561032757600080fd5b8035906020019184600183028401116401000000008311171561034957600080fd5b91908080601f016020809104026020016040519081016040528093929190818152602001838380828437600081840152601f19601f8201169050808301925050505050505091929192908035906020019092919080359060200190929190505050611460565b005b61046a600480360360208110156103c757600080fd5b81019080803590602001906401000000008111156103e457600080fd5b8201836020820111156103f657600080fd5b8035906020019184600183028401116401000000008311171561041857600080fd5b91908080601f016020809104026020016040519081016040528093929190818152602001838380828437600081840152601f19601f820116905080830192505050505050509192919290505050611922565b005b61052f6004803603604081101561048257600080fd5b810190808035906020019064010000000081111561049f57600080fd5b8201836020820111156104b157600080fd5b803590602001918460018302840111640100000000831117156104d357600080fd5b91908080601f016020809104026020016040519081016040528093929190818152602001838380828437600081840152601f19601f82011690508083019250505050505050919291929080359060200190929190505050612050565b005b6106816004803603604081101561054757600080fd5b810190808035906020019064010000000081111561056457600080fd5b82018360208201111561057657600080fd5b8035906020019184600183028401116401000000008311171561059857600080fd5b91908080601f016020809104026020016040519081016040528093929190818152602001838380828437600081840152601f19601f820116905080830192505050505050509192919290803590602001906401000000008111156105fb57600080fd5b82018360208201111561060d57600080fd5b8035906020019184600183028401116401000000008311171561062f57600080fd5b91908080601f016020809104026020016040519081016040528093929190818152602001838380828437600081840152601f19601f820116905080830192505050505050509192919290505050612510565b005b61073c6004803603602081101561069957600080fd5b81019080803590602001906401000000008111156106b657600080fd5b8201836020820111156106c857600080fd5b803590602001918460018302840111640100000000831117156106ea57600080fd5b91908080601f016020809104026020016040519081016040528093929190818152602001838380828437600081840152601f19601f8201169050808301925050505050505091929192905050506128a9565b005b806000815114156107b7576040517f08c379a00000000000000000000000000000000000000000000000000000000081526004018080602001828103825260168152602001807f537472696e672063616e6e6f7420626520656d7074790000000000000000000081525060200191505060405180910390fd5b81600160028111156107c557fe5b6000826040518082805190602001908083835b602083106107fb57805182526020820191506020810190506020830392506107d8565b6001836020036101000a038019825116818451168082178552505050505050905001915050908152602001604051809103902060000160009054906101000a900460ff16600281111561084a57fe5b146108a0576040517f08c379a0000000000000000000000000000000000000000000000000000000008152600401808060200182810382526025815260200180612de16025913960400191505060405180910390fd5b823373ffffffffffffffffffffffffffffffffffffffff166000826040518082805190602001908083835b602083106108ee57805182526020820191506020810190506020830392506108cb565b6001836020036101000a038019825116818451168082178552505050505050905001915050908152602001604051809103902060020160009054906101000a900473ffffffffffffffffffffffffffffffffffffffff1673ffffffffffffffffffffffffffffffffffffffff16146109b1576040517f08c379a0000000000000000000000000000000000000000000000000000000008152600401808060200182810382526029815260200180612d906029913960400191505060405180910390fd5b600080856040518082805190602001908083835b602083106109e857805182526020820191506020810190506020830392506109c5565b6001836020036101000a0380198251168184511680821785525050505050509050019150509081526020016040518091039020905060028160000160006101000a81548160ff02191690836002811115610a3e57fe5b0217905550428160070181905550600160003373ffffffffffffffffffffffffffffffffffffffff1673ffffffffffffffffffffffffffffffffffffffff1681526020019081526020016000206000610a979190612c81565b5050505050565b610aa6612cc9565b600260003373ffffffffffffffffffffffffffffffffffffffff1673ffffffffffffffffffffffffffffffffffffffff168152602001908152602001600020604051806060016040529081600082018054600181600116156101000203166002900480601f016020809104026020016040519081016040528092919081815260200182805460018160011615610100020316600290048015610b895780601f10610b5e57610100808354040283529160200191610b89565b820191906000526020600020905b815481529060010190602001808311610b6c57829003601f168201915b50505050508152602001600182018054600181600116156101000203166002900480601f016020809104026020016040519081016040528092919081815260200182805460018160011615610100020316600290048015610c2b5780601f10610c0057610100808354040283529160200191610c2b565b820191906000526020600020905b815481529060010190602001808311610c0e57829003601f168201915b505050505081526020016002820154815250509050600081600001515114158015610c5c5750600081602001515114155b8015610c6d57506000816040015114155b610cdf576040517f08c379a000000000000000000000000000000000000000000000000000000000815260040180806020018281038252601f8152602001807f596f75206d7573742063726561746520612070726f66696c652066697273740081525060200191505060405180910390fd5b81600081511415610d58576040517f08c379a00000000000000000000000000000000000000000000000000000000081526004018080602001828103825260168152602001807f537472696e672063616e6e6f7420626520656d7074790000000000000000000081525060200191505060405180910390fd5b8260006002811115610d6657fe5b6000826040518082805190602001908083835b60208310610d9c5780518252602082019150602081019050602083039250610d79565b6001836020036101000a038019825116818451168082178552505050505050905001915050908152602001604051809103902060000160009054906101000a900460ff166002811115610deb57fe5b14610e5e576040517f08c379a00000000000000000000000000000000000000000000000000000000081526004018080602001828103825260188152602001807f506172747920697320616c72656164792063726561746564000000000000000081525060200191505060405180910390fd5b600080856040518082805190602001908083835b60208310610e955780518252602082019150602081019050602083039250610e72565b6001836020036101000a0380198251168184511680821785525050505050509050019150509081526020016040518091039020905060018160000160006101000a81548160ff02191690836002811115610eeb57fe5b0217905550428160010181905550338160020160006101000a81548173ffffffffffffffffffffffffffffffffffffffff021916908373ffffffffffffffffffffffffffffffffffffffff16021790555061012c816001015401816007018190555084600160003373ffffffffffffffffffffffffffffffffffffffff1673ffffffffffffffffffffffffffffffffffffffff1681526020019081526020016000209080519060200190610fa0929190612cea565b505050505050565b610fb0612cc9565b600260003373ffffffffffffffffffffffffffffffffffffffff1673ffffffffffffffffffffffffffffffffffffffff168152602001908152602001600020604051806060016040529081600082018054600181600116156101000203166002900480601f0160208091040260200160405190810160405280929190818152602001828054600181600116156101000203166002900480156110935780601f1061106857610100808354040283529160200191611093565b820191906000526020600020905b81548152906001019060200180831161107657829003601f168201915b50505050508152602001600182018054600181600116156101000203166002900480601f0160208091040260200160405190810160405280929190818152602001828054600181600116156101000203166002900480156111355780601f1061110a57610100808354040283529160200191611135565b820191906000526020600020905b81548152906001019060200180831161111857829003601f168201915b5050505050815260200160028201548152505090506000816000015151141580156111665750600081602001515114155b801561117757506000816040015114155b6111e9576040517f08c379a000000000000000000000000000000000000000000000000000000000815260040180806020018281038252601f8152602001807f596f75206d7573742063726561746520612070726f66696c652066697273740081525060200191505060405180910390fd5b82600081511415611262576040517f08c379a00000000000000000000000000000000000000000000000000000000081526004018080602001828103825260168152602001807f537472696e672063616e6e6f7420626520656d7074790000000000000000000081525060200191505060405180910390fd5b836000600281111561127057fe5b6000826040518082805190602001908083835b602083106112a65780518252602082019150602081019050602083039250611283565b6001836020036101000a038019825116818451168082178552505050505050905001915050908152602001604051809103902060000160009054906101000a900460ff1660028111156112f557fe5b14611368576040517f08c379a00000000000000000000000000000000000000000000000000000000081526004018080602001828103825260188152602001807f506172747920697320616c72656164792063726561746564000000000000000081525060200191505060405180910390fd5b600080866040518082805190602001908083835b6020831061139f578051825260208201915060208101905060208303925061137c565b6001836020036101000a0380198251168184511680821785525050505050509050019150509081526020016040518091039020905060018160000160006101000a81548160ff021916908360028111156113f557fe5b0217905550428160010181905550338160020160006101000a81548173ffffffffffffffffffffffffffffffffffffffff021916908373ffffffffffffffffffffffffffffffffffffffff160217905550603c85028160010154018160070181905550505050505050565b611468612cc9565b600260003373ffffffffffffffffffffffffffffffffffffffff1673ffffffffffffffffffffffffffffffffffffffff168152602001908152602001600020604051806060016040529081600082018054600181600116156101000203166002900480601f01602080910402602001604051908101604052809291908181526020018280546001816001161561010002031660029004801561154b5780601f106115205761010080835404028352916020019161154b565b820191906000526020600020905b81548152906001019060200180831161152e57829003601f168201915b50505050508152602001600182018054600181600116156101000203166002900480601f0160208091040260200160405190810160405280929190818152602001828054600181600116156101000203166002900480156115ed5780601f106115c2576101008083540402835291602001916115ed565b820191906000526020600020905b8154815290600101906020018083116115d057829003601f168201915b50505050508152602001600282015481525050905060008160000151511415801561161e5750600081602001515114155b801561162f57506000816040015114155b6116a1576040517f08c379a000000000000000000000000000000000000000000000000000000000815260040180806020018281038252601f8152602001807f596f75206d7573742063726561746520612070726f66696c652066697273740081525060200191505060405180910390fd5b8360008151141561171a576040517f08c379a00000000000000000000000000000000000000000000000000000000081526004018080602001828103825260168152602001807f537472696e672063616e6e6f7420626520656d7074790000000000000000000081525060200191505060405180910390fd5b846000600281111561172857fe5b6000826040518082805190602001908083835b6020831061175e578051825260208201915060208101905060208303925061173b565b6001836020036101000a038019825116818451168082178552505050505050905001915050908152602001604051809103902060000160009054906101000a900460ff1660028111156117ad57fe5b14611820576040517f08c379a00000000000000000000000000000000000000000000000000000000081526004018080602001828103825260188152602001807f506172747920697320616c72656164792063726561746564000000000000000081525060200191505060405180910390fd5b600080876040518082805190602001908083835b602083106118575780518252602082019150602081019050602083039250611834565b6001836020036101000a0380198251168184511680821785525050505050509050019150509081526020016040518091039020905060018160000160006101000a81548160ff021916908360028111156118ad57fe5b0217905550428160010181905550603c86028160010154018160070181905550848160030181905550338160020160006101000a81548173ffffffffffffffffffffffffffffffffffffffff021916908373ffffffffffffffffffffffffffffffffffffffff16021790555050505050505050565b61192a612cc9565b600260003373ffffffffffffffffffffffffffffffffffffffff1673ffffffffffffffffffffffffffffffffffffffff168152602001908152602001600020604051806060016040529081600082018054600181600116156101000203166002900480601f016020809104026020016040519081016040528092919081815260200182805460018160011615610100020316600290048015611a0d5780601f106119e257610100808354040283529160200191611a0d565b820191906000526020600020905b8154815290600101906020018083116119f057829003601f168201915b50505050508152602001600182018054600181600116156101000203166002900480601f016020809104026020016040519081016040528092919081815260200182805460018160011615610100020316600290048015611aaf5780601f10611a8457610100808354040283529160200191611aaf565b820191906000526020600020905b815481529060010190602001808311611a9257829003601f168201915b505050505081526020016002820154815250509050600081600001515114158015611ae05750600081602001515114155b8015611af157506000816040015114155b611b63576040517f08c379a000000000000000000000000000000000000000000000000000000000815260040180806020018281038252601f8152602001807f596f75206d7573742063726561746520612070726f66696c652066697273740081525060200191505060405180910390fd5b81600081511415611bdc576040517f08c379a00000000000000000000000000000000000000000000000000000000081526004018080602001828103825260168152602001807f537472696e672063616e6e6f7420626520656d7074790000000000000000000081525060200191505060405180910390fd5b8260016002811115611bea57fe5b6000826040518082805190602001908083835b60208310611c205780518252602082019150602081019050602083039250611bfd565b6001836020036101000a038019825116818451168082178552505050505050905001915050908152602001604051809103902060000160009054906101000a900460ff166002811115611c6f57fe5b14611cc5576040517f08c379a0000000000000000000000000000000000000000000000000000000008152600401808060200182810382526025815260200180612de16025913960400191505060405180910390fd5b833373ffffffffffffffffffffffffffffffffffffffff166000826040518082805190602001908083835b60208310611d135780518252602082019150602081019050602083039250611cf0565b6001836020036101000a038019825116818451168082178552505050505050905001915050908152602001604051809103902060020160009054906101000a900473ffffffffffffffffffffffffffffffffffffffff1673ffffffffffffffffffffffffffffffffffffffff161415611dd7576040517f08c379a0000000000000000000000000000000000000000000000000000000008152600401808060200182810382526028815260200180612db96028913960400191505060405180910390fd5b84600115156000826040518082805190602001908083835b60208310611e125780518252602082019150602081019050602083039250611def565b6001836020036101000a038019825116818451168082178552505050505050905001915050908152602001604051809103902060060160003373ffffffffffffffffffffffffffffffffffffffff1673ffffffffffffffffffffffffffffffffffffffff16815260200190815260200160002060009054906101000a900460ff1615151415611f09576040517f08c379a000000000000000000000000000000000000000000000000000000000815260040180806020018281038252601c8152602001807f596f752061726520616c726561647920696e207468652070617274790000000081525060200191505060405180910390fd5b600080876040518082805190602001908083835b60208310611f405780518252602082019150602081019050602083039250611f1d565b6001836020036101000a0380198251168184511680821785525050505050509050019150509081526020016040518091039020905060008160040160008360050160008154809291906001019190505581526020019081526020016000209050428160010181905550338160000160006101000a81548173ffffffffffffffffffffffffffffffffffffffff021916908373ffffffffffffffffffffffffffffffffffffffff16021790555060018260060160003373ffffffffffffffffffffffffffffffffffffffff1673ffffffffffffffffffffffffffffffffffffffff16815260200190815260200160002060006101000a81548160ff0219169083151502179055505050505050505050565b612058612cc9565b600260003373ffffffffffffffffffffffffffffffffffffffff1673ffffffffffffffffffffffffffffffffffffffff168152602001908152602001600020604051806060016040529081600082018054600181600116156101000203166002900480601f01602080910402602001604051908101604052809291908181526020018280546001816001161561010002031660029004801561213b5780601f106121105761010080835404028352916020019161213b565b820191906000526020600020905b81548152906001019060200180831161211e57829003601f168201915b50505050508152602001600182018054600181600116156101000203166002900480601f0160208091040260200160405190810160405280929190818152602001828054600181600116156101000203166002900480156121dd5780601f106121b2576101008083540402835291602001916121dd565b820191906000526020600020905b8154815290600101906020018083116121c057829003601f168201915b50505050508152602001600282015481525050905060008160000151511415801561220e5750600081602001515114155b801561221f57506000816040015114155b612291576040517f08c379a000000000000000000000000000000000000000000000000000000000815260040180806020018281038252601f8152602001807f596f75206d7573742063726561746520612070726f66696c652066697273740081525060200191505060405180910390fd5b8260008151141561230a576040517f08c379a00000000000000000000000000000000000000000000000000000000081526004018080602001828103825260168152602001807f537472696e672063616e6e6f7420626520656d7074790000000000000000000081525060200191505060405180910390fd5b836000600281111561231857fe5b6000826040518082805190602001908083835b6020831061234e578051825260208201915060208101905060208303925061232b565b6001836020036101000a038019825116818451168082178552505050505050905001915050908152602001604051809103902060000160009054906101000a900460ff16600281111561239d57fe5b14612410576040517f08c379a00000000000000000000000000000000000000000000000000000000081526004018080602001828103825260188152602001807f506172747920697320616c72656164792063726561746564000000000000000081525060200191505060405180910390fd5b600080866040518082805190602001908083835b602083106124475780518252602082019150602081019050602083039250612424565b6001836020036101000a0380198251168184511680821785525050505050509050019150509081526020016040518091039020905060018160000160006101000a81548160ff0219169083600281111561249d57fe5b021790555042816001018190555061012c8160010154018160070181905550848160030181905550338160020160006101000a81548173ffffffffffffffffffffffffffffffffffffffff021916908373ffffffffffffffffffffffffffffffffffffffff160217905550505050505050565b612518612cc9565b600260003373ffffffffffffffffffffffffffffffffffffffff1673ffffffffffffffffffffffffffffffffffffffff168152602001908152602001600020604051806060016040529081600082018054600181600116156101000203166002900480601f0160208091040260200160405190810160405280929190818152602001828054600181600116156101000203166002900480156125fb5780601f106125d0576101008083540402835291602001916125fb565b820191906000526020600020905b8154815290600101906020018083116125de57829003601f168201915b50505050508152602001600182018054600181600116156101000203166002900480601f01602080910402602001604051908101604052809291908181526020018280546001816001161561010002031660029004801561269d5780601f106126725761010080835404028352916020019161269d565b820191906000526020600020905b81548152906001019060200180831161268057829003601f168201915b50505050508152602001600282015481525050905060008160000151511480156126cc57506000816020015151145b80156126dc575060008160400151145b612731576040517f08c379a0000000000000000000000000000000000000000000000000000000008152600401808060200182810382526022815260200180612e066022913960400191505060405180910390fd5b826000815114156127aa576040517f08c379a00000000000000000000000000000000000000000000000000000000081526004018080602001828103825260168152602001807f537472696e672063616e6e6f7420626520656d7074790000000000000000000081525060200191505060405180910390fd5b82600081511415612823576040517f08c379a00000000000000000000000000000000000000000000000000000000081526004018080602001828103825260168152602001807f537472696e672063616e6e6f7420626520656d7074790000000000000000000081525060200191505060405180910390fd5b6000600260003373ffffffffffffffffffffffffffffffffffffffff1673ffffffffffffffffffffffffffffffffffffffff16815260200190815260200160002090508581600001908051906020019061287e929190612cea565b5084816001019080519060200190612897929190612cea565b50428160020181905550505050505050565b80600081511415612922576040517f08c379a00000000000000000000000000000000000000000000000000000000081526004018080602001828103825260168152602001807f537472696e672063616e6e6f7420626520656d7074790000000000000000000081525060200191505060405180910390fd5b816001600281111561293057fe5b6000826040518082805190602001908083835b602083106129665780518252602082019150602081019050602083039250612943565b6001836020036101000a038019825116818451168082178552505050505050905001915050908152602001604051809103902060000160009054906101000a900460ff1660028111156129b557fe5b14612a0b576040517f08c379a0000000000000000000000000000000000000000000000000000000008152600401808060200182810382526025815260200180612de16025913960400191505060405180910390fd5b823373ffffffffffffffffffffffffffffffffffffffff166000826040518082805190602001908083835b60208310612a595780518252602082019150602081019050602083039250612a36565b6001836020036101000a038019825116818451168082178552505050505050905001915050908152602001604051809103902060020160009054906101000a900473ffffffffffffffffffffffffffffffffffffffff1673ffffffffffffffffffffffffffffffffffffffff1614612b1c576040517f08c379a0000000000000000000000000000000000000000000000000000000008152600401808060200182810382526029815260200180612d906029913960400191505060405180910390fd5b600080856040518082805190602001908083835b60208310612b535780518252602082019150602081019050602083039250612b30565b6001836020036101000a0380198251168184511680821785525050505050509050019150509081526020016040518091039020905060008160040160008360050160008154809291906001019190505581526020019081526020016000209050428160010181905550338160000160006101000a81548173ffffffffffffffffffffffffffffffffffffffff021916908373ffffffffffffffffffffffffffffffffffffffff16021790555060028260000160006101000a81548160ff02191690836002811115612c2057fe5b0217905550428260070181905550600160003373ffffffffffffffffffffffffffffffffffffffff1673ffffffffffffffffffffffffffffffffffffffff1681526020019081526020016000206000612c799190612c81565b505050505050565b50805460018160011615610100020316600290046000825580601f10612ca75750612cc6565b601f016020900490600052602060002090810190612cc59190612d6a565b5b50565b60405180606001604052806060815260200160608152602001600081525090565b828054600181600116156101000203166002900490600052602060002090601f016020900481019282601f10612d2b57805160ff1916838001178555612d59565b82800160010185558215612d59579182015b82811115612d58578251825591602001919060010190612d3d565b5b509050612d669190612d6a565b5090565b612d8c91905b80821115612d88576000816000905550600101612d70565b5090565b9056fe596f75206d7573742062652074686520706172747927732063726561746f7220746f2061636365737350617274792063726561746f722063616e6e6f7420626520616464656420617320612067756573745061727479206973206e6f7420696e2074686520496e697469616c697a6564207374617465596f75206861766520616c7265616479206372656174656420612070726f66696c65a165627a7a72305820e995a9478ce4ca543aa54e9c0f03eaef2a02556a30f5f5f767318bf94ba1f4dd0029",
  "source": "pragma solidity ^0.5.7;\n\n/// @author Michael Smith, Evan Steiner, Ezra Huston\n/// @title A simple consent-saving contract\n// gas limit: minimum of 3148090 to deploy contract\ncontract ConsentContract {\n\tenum ContractState { DoesNotExist, Initialized, Finalized }\n\n\tstruct Party {\n    \tContractState state;\n    \tuint256 startTime;\n    \taddress owner;\n    \tuint256 maxUsersPermitted;\n    \tmapping(uint256 => ConsentingUser) consentingUsers;\n    \tuint256 guestsInParty;\n    \tmapping(address => bool) added;\n    \tuint256 closeTime;\n\t}\n\n\tstruct ConsentingUser {\n    \taddress userAddress;\n    \tuint256 timeAdded;\n\t}\n\n\tstruct Profile {\n\t\tstring firstName;\n\t\tstring lastName;\n    \tuint256 timeCreated;\n\t}\n\n\tmapping(string => Party) parties;\n\tmapping(address => string) partyContractNotFinalized;\n\tmapping(address => Profile) profiles;\n\n\tmodifier profileDoesNotExist {\n\t    Profile memory profile = profiles[msg.sender];\n\t    require(\n        \t(bytes(profile.firstName).length == 0) &&\n        \t(bytes(profile.lastName).length == 0) &&\n        \t(profile.timeCreated == 0),\n        \t\"You have already created a profile\"\n    \t);\n    \t_;\n\t}\n\n\tmodifier profileExists {\n\t    Profile memory profile = profiles[msg.sender];\n\t    require(\n        \t(bytes(profile.firstName).length != 0) &&\n        \t(bytes(profile.lastName).length != 0) &&\n        \t(profile.timeCreated != 0),\n        \t\"You must create a profile first\"\n    \t);\n    \t_;\n\t}\n\n\tmodifier stringNotEmpty(string memory inputString) {\n\t    require(\n\t        bytes(inputString).length != 0,\n\t        \"String cannot be empty\"\n\t    );\n\t    _;\n\t}\n\n\tmodifier partyDoesNotExist(string memory partyName) {\n    \trequire(\n        \tparties[partyName].state == ContractState.DoesNotExist,\n        \t\"Party is already created\"\n    \t);\n    \t_;\n\t}\n\n\tmodifier partyInitialized(string memory partyName) {\n    \trequire(\n        \tparties[partyName].state == ContractState.Initialized,\n        \t\"Party is not in the Initialized state\"\n    \t);\n    \t_;\n\t}\n\n\tmodifier partyOwner(string memory partyName) {\n    \trequire(\n        \tparties[partyName].owner == msg.sender,\n        \t\"You must be the party's creator to access\"\n    \t);\n    \t_;\n\t}\n\n\tmodifier notPartyOwner(string memory partyName) {\n    \trequire(\n        \tparties[partyName].owner != msg.sender,\n        \t\"Party creator cannot be added as a guest\"\n    \t);\n    \t_;\n\t}\n\n\tmodifier notYetAddedToParty(string memory partyName) {\n\t    require(\n            parties[partyName].added[msg.sender] != true,\n        \t\"You are already in the party\"\n    \t);\n    \t_;\n\t}\n\n\t// constructor function\n\tconstructor() public {}\n\n\t// fallback function\n\tfunction() external {}\n\n\t// Step 0.\n\t//  Create a profile with:\n\t//  - first name.\n\t//  - last name.\n\tfunction createProfile(string memory fName, string memory lName)\n    \tpublic\n    \tprofileDoesNotExist\n    \tstringNotEmpty(fName)\n    \tstringNotEmpty(lName)\n\t{\n    \tProfile storage currUser = profiles[msg.sender];\n\n    \tcurrUser.firstName = fName;\n    \tcurrUser.lastName = lName;\n    \tcurrUser.timeCreated = now;\n\t}\n\n\t// Step 1a.\n\t//   Alice creates the party with:\n\t//   - default closeTime of 5 minutes.\n\t//   - no max party size constraint.\n\tfunction createParty1A(string memory partyName)\n    \tpublic\n    \tprofileExists\n    \tstringNotEmpty(partyName)\n    \tpartyDoesNotExist(partyName)\n\t{\n    \tParty storage party1a = parties[partyName];\n\n    \tparty1a.state = ContractState.Initialized;\n    \tparty1a.startTime = now;\n    \tparty1a.owner = msg.sender;\n    \t// Not using the maxUsersPermitted to constrain the party size.\n    \tparty1a.closeTime = party1a.startTime + 5 minutes; // now + 5 minutes\n\n    \tpartyContractNotFinalized[msg.sender] = partyName;\n\t}\n\n\t// Step 1b.\n\t//   Alice creates the party with:\n\t//   - a specified closeTime of x (in minutes).\n\t//   - no max party size constraint.\n\tfunction createParty1B(string memory partyName, uint256 closeTimeInMinutes)\n    \tpublic\n    \tprofileExists\n    \tstringNotEmpty(partyName)\n    \tpartyDoesNotExist(partyName)\n\t{\n    \tParty storage party1b = parties[partyName];\n\n    \tparty1b.state = ContractState.Initialized;\n    \tparty1b.startTime = now;\n    \tparty1b.owner = msg.sender;\n    \t// Not using the maxUsersPermitted to constrain the party size.\n    \tparty1b.closeTime = party1b.startTime + (closeTimeInMinutes * 1 minutes); // now + x minutes.\n\t}\n\n\t// Step 1c.\n\t//  Alice creates the party with:\n\t//  - default closeTime of 5 minutes.\n\t//  - a max of y number of guests permitted.\n\tfunction createParty1C(string memory partyName, uint256 maxNumberOfGuests)\n    \tpublic\n    \tprofileExists\n    \tstringNotEmpty(partyName)\n    \tpartyDoesNotExist(partyName)\n\t{\n    \tParty storage party1c = parties[partyName];\n\n    \tparty1c.state = ContractState.Initialized;\n    \tparty1c.startTime = now;\n    \tparty1c.closeTime = party1c.startTime + 5 minutes; // now + 5 minutes\n    \tparty1c.maxUsersPermitted = maxNumberOfGuests;\n    \tparty1c.owner = msg.sender;\n\t}\n\n\t// Step 1d=(1b & 1c).\n\t//  Alice creates the party with:\n\t//  - a specified closeTime of x (in minutes).\n\t//  - a max of y number of guests permitted.\n\tfunction createParty1D(string memory partyName, uint256 closeTimeInMinutes, uint256 maxNumberOfGuests)\n    \tpublic\n    \tprofileExists\n    \tstringNotEmpty(partyName)\n    \tpartyDoesNotExist(partyName)\n\t{\n    \tParty storage party1d = parties[partyName];\n\n    \tparty1d.state = ContractState.Initialized;\n    \tparty1d.startTime = now;\n    \tparty1d.closeTime = party1d.startTime + closeTimeInMinutes * 1 minutes;\n    \tparty1d.maxUsersPermitted = maxNumberOfGuests;\n    \tparty1d.owner = msg.sender;\n\t}\n\t\n\t// Step 2.\n\t//  Alice invites Bob to join the party by sending the partyName string.\n\t\n\t// Step 3.\n\t//  Bob joins the party (consents to party).\n\tfunction addGuestToParty(string memory partyName)\n    \tpublic\n    \tprofileExists\n    \tstringNotEmpty(partyName)\n    \tpartyInitialized(partyName)\n    \tnotPartyOwner(partyName)\n    \tnotYetAddedToParty(partyName)\n\t{\n    \tParty storage party3 = parties[partyName];\n    \tConsentingUser storage guest = party3.consentingUsers[party3.guestsInParty++];\n    \t\n    \tguest.timeAdded = now;\n    \tguest.userAddress = msg.sender;\n    \tparty3.added[msg.sender] = true;\n\t}\n\t\n\t// Step 4a.\n\t//  Alice consents to the party.\n\t//  - party is finalized.\n\tfunction ownerConsents(string memory partyName)\n    \tpublic\n    \tstringNotEmpty(partyName)\n    \tpartyInitialized(partyName)\n    \tpartyOwner(partyName)\n\t{\n\t    Party storage party4 = parties[partyName];\n    \tConsentingUser storage partyCreator = party4.consentingUsers[party4.guestsInParty++];\n    \t\n    \tpartyCreator.timeAdded = now;\n    \tpartyCreator.userAddress = msg.sender;\n    \t\n    \tparty4.state = ContractState.Finalized;\n    \tparty4.closeTime = now;\n    \tdelete(partyContractNotFinalized[msg.sender]);\n\t}\n\t\n\t// Step 4b.\n\t//  Alice cancels her consent.\n\t//  - party is finalized.\n\tfunction ownerCancels(string memory partyName)\n    \tpublic\n    \tstringNotEmpty(partyName)\n    \tpartyInitialized(partyName)\n    \tpartyOwner(partyName)\n\t{\n    \tParty storage party4 = parties[partyName];\n    \t\n    \tparty4.state = ContractState.Finalized;\n    \tparty4.closeTime = now;\n    \tdelete(partyContractNotFinalized[msg.sender]);\n\t}\n}\n",
  "sourcePath": "/s/bach/d/under/msmith91/WebstormProjects/consent-contract/ethereum/contracts/ConsentContract.sol",
  "compiler": {
    "name": "solc",
    "version": "0.5.7+commit.6da8b019.Emscripten.clang"
  },
  "schemaVersion": "3.0.6",
  "updatedAt": "2019-04-23T21:01:28.666Z",
  "devdoc": {
    "author": "Michael Smith, Evan Steiner, Ezra Huston",
    "methods": {},
    "title": "A simple consent-saving contract"
  },
  "userdoc": {
    "methods": {}
  }
}