{
  "contractName": "ConsentContract",
  "abi": [
    {
      "inputs": [],
      "payable": false,
      "stateMutability": "nonpayable",
      "type": "constructor",
      "signature": "constructor"
    },
    {
      "payable": false,
      "stateMutability": "nonpayable",
      "type": "fallback"
    },
    {
      "constant": false,
      "inputs": [
        {
          "name": "fName",
          "type": "string"
        },
        {
          "name": "lName",
          "type": "string"
        }
      ],
      "name": "createProfile",
      "outputs": [],
      "payable": false,
      "stateMutability": "nonpayable",
      "type": "function",
      "signature": "0xba1feb8a"
    },
    {
      "constant": false,
      "inputs": [
        {
          "name": "partyName",
          "type": "string"
        }
      ],
      "name": "createParty1A",
      "outputs": [],
      "payable": false,
      "stateMutability": "nonpayable",
      "type": "function",
      "signature": "0x1165724a"
    },
    {
      "constant": false,
      "inputs": [
        {
          "name": "partyName",
          "type": "string"
        },
        {
          "name": "closeTimeInMinutes",
          "type": "uint256"
        }
      ],
      "name": "createParty1B",
      "outputs": [],
      "payable": false,
      "stateMutability": "nonpayable",
      "type": "function",
      "signature": "0x19681632"
    },
    {
      "constant": false,
      "inputs": [
        {
          "name": "partyName",
          "type": "string"
        },
        {
          "name": "maxNumberOfGuests",
          "type": "uint256"
        }
      ],
      "name": "createParty1C",
      "outputs": [],
      "payable": false,
      "stateMutability": "nonpayable",
      "type": "function",
      "signature": "0x651363e9"
    },
    {
      "constant": false,
      "inputs": [
        {
          "name": "partyName",
          "type": "string"
        },
        {
          "name": "closeTimeInMinutes",
          "type": "uint256"
        },
        {
          "name": "maxNumberOfGuests",
          "type": "uint256"
        }
      ],
      "name": "createParty1D",
      "outputs": [],
      "payable": false,
      "stateMutability": "nonpayable",
      "type": "function",
      "signature": "0x249e767f"
    },
    {
      "constant": false,
      "inputs": [
        {
          "name": "partyName",
          "type": "string"
        }
      ],
      "name": "addGuestToParty",
      "outputs": [],
      "payable": false,
      "stateMutability": "nonpayable",
      "type": "function",
      "signature": "0x3efa9adf"
    },
    {
      "constant": false,
      "inputs": [
        {
          "name": "partyName",
          "type": "string"
        }
      ],
      "name": "ownerConsents",
      "outputs": [],
      "payable": false,
      "stateMutability": "nonpayable",
      "type": "function",
      "signature": "0xfc51e097"
    },
    {
      "constant": false,
      "inputs": [
        {
          "name": "partyName",
          "type": "string"
        }
      ],
      "name": "ownerCancels",
      "outputs": [],
      "payable": false,
      "stateMutability": "nonpayable",
      "type": "function",
      "signature": "0x0159a76c"
    },
    {
      "constant": true,
      "inputs": [],
      "name": "profileDoesNotExist",
      "outputs": [
        {
          "name": "",
          "type": "bool"
        }
      ],
      "payable": false,
      "stateMutability": "view",
      "type": "function",
      "signature": "0xbab31052"
    },
    {
      "constant": true,
      "inputs": [
        {
          "name": "partyName",
          "type": "string"
        }
      ],
      "name": "partyDoesNotExist",
      "outputs": [
        {
          "name": "",
          "type": "bool"
        }
      ],
      "payable": false,
      "stateMutability": "view",
      "type": "function",
      "signature": "0x2cbf1016"
    },
    {
      "constant": true,
      "inputs": [
        {
          "name": "partyName",
          "type": "string"
        }
      ],
      "name": "partyInitialized",
      "outputs": [
        {
          "name": "",
          "type": "bool"
        }
      ],
      "payable": false,
      "stateMutability": "view",
      "type": "function",
      "signature": "0xc36331be"
    },
    {
      "constant": true,
      "inputs": [
        {
          "name": "partyName",
          "type": "string"
        }
      ],
      "name": "partyOwner",
      "outputs": [
        {
          "name": "",
          "type": "bool"
        }
      ],
      "payable": false,
      "stateMutability": "view",
      "type": "function",
      "signature": "0x0a01ef20"
    },
    {
      "constant": true,
      "inputs": [
        {
          "name": "partyName",
          "type": "string"
        }
      ],
      "name": "notYetAddedToParty",
      "outputs": [
        {
          "name": "",
          "type": "bool"
        }
      ],
      "payable": false,
      "stateMutability": "view",
      "type": "function",
      "signature": "0x3825823f"
    },
    {
      "constant": true,
      "inputs": [
        {
          "name": "inputString",
          "type": "string"
        }
      ],
      "name": "notStringEmpty",
      "outputs": [
        {
          "name": "",
          "type": "bool"
        }
      ],
      "payable": false,
      "stateMutability": "pure",
      "type": "function",
      "signature": "0x8a4271c2"
    }
  ],
  "bytecode": "0x608060405234801561001057600080fd5b5061256c806100206000396000f3fe608060405234801561001057600080fd5b5060043610610107576000357c0100000000000000000000000000000000000000000000000000000000900480633efa9adf116100a9578063ba1feb8a11610083578063ba1feb8a146108df578063bab3105214610a31578063c36331be14610a53578063fc51e09714610b2657610107565b80633efa9adf1461068c578063651363e9146107475780638a4271c21461080c57610107565b806319681632116100e55780631968163214610352578063249e767f146104175780632cbf1016146104e65780633825823f146105b957610107565b80630159a76c146101095780630a01ef20146101c45780631165724a14610297575b005b6101c26004803603602081101561011f57600080fd5b810190808035906020019064010000000081111561013c57600080fd5b82018360208201111561014e57600080fd5b8035906020019184600183028401116401000000008311171561017057600080fd5b91908080601f016020809104026020016040519081016040528093929190818152602001838380828437600081840152601f19601f820116905080830192505050505050509192919290505050610be1565b005b61027d600480360360208110156101da57600080fd5b81019080803590602001906401000000008111156101f757600080fd5b82018360208201111561020957600080fd5b8035906020019184600183028401116401000000008311171561022b57600080fd5b91908080601f016020809104026020016040519081016040528093929190818152602001838380828437600081840152601f19601f820116905080830192505050505050509192919290505050610dbd565b604051808215151515815260200191505060405180910390f35b610350600480360360208110156102ad57600080fd5b81019080803590602001906401000000008111156102ca57600080fd5b8201836020820111156102dc57600080fd5b803590602001918460018302840111640100000000831117156102fe57600080fd5b91908080601f016020809104026020016040519081016040528093929190818152602001838380828437600081840152601f19601f820116905080830192505050505050509192919290505050610e81565b005b6104156004803603604081101561036857600080fd5b810190808035906020019064010000000081111561038557600080fd5b82018360208201111561039757600080fd5b803590602001918460018302840111640100000000831117156103b957600080fd5b91908080601f016020809104026020016040519081016040528093929190818152602001838380828437600081840152601f19601f820116905080830192505050505050509192919290803590602001909291905050506110f3565b005b6104e46004803603606081101561042d57600080fd5b810190808035906020019064010000000081111561044a57600080fd5b82018360208201111561045c57600080fd5b8035906020019184600183028401116401000000008311171561047e57600080fd5b91908080601f016020809104026020016040519081016040528093929190818152602001838380828437600081840152601f19601f8201169050808301925050505050505091929192908035906020019092919080359060200190929190505050611367565b005b61059f600480360360208110156104fc57600080fd5b810190808035906020019064010000000081111561051957600080fd5b82018360208201111561052b57600080fd5b8035906020019184600183028401116401000000008311171561054d57600080fd5b91908080601f016020809104026020016040519081016040528093929190818152602001838380828437600081840152601f19601f8201169050808301925050505050505091929192905050506115db565b604051808215151515815260200191505060405180910390f35b610672600480360360208110156105cf57600080fd5b81019080803590602001906401000000008111156105ec57600080fd5b8201836020820111156105fe57600080fd5b8035906020019184600183028401116401000000008311171561062057600080fd5b91908080601f016020809104026020016040519081016040528093929190818152602001838380828437600081840152601f19601f820116905080830192505050505050509192919290505050611676565b604051808215151515815260200191505060405180910390f35b610745600480360360208110156106a257600080fd5b81019080803590602001906401000000008111156106bf57600080fd5b8201836020820111156106d157600080fd5b803590602001918460018302840111640100000000831117156106f357600080fd5b91908080601f016020809104026020016040519081016040528093929190818152602001838380828437600081840152601f19601f82011690508083019250505050505050919291929050505061173e565b005b61080a6004803603604081101561075d57600080fd5b810190808035906020019064010000000081111561077a57600080fd5b82018360208201111561078c57600080fd5b803590602001918460018302840111640100000000831117156107ae57600080fd5b91908080601f016020809104026020016040519081016040528093929190818152602001838380828437600081840152601f19601f82011690508083019250505050505050919291929080359060200190929190505050611ab6565b005b6108c56004803603602081101561082257600080fd5b810190808035906020019064010000000081111561083f57600080fd5b82018360208201111561085157600080fd5b8035906020019184600183028401116401000000008311171561087357600080fd5b91908080601f016020809104026020016040519081016040528093929190818152602001838380828437600081840152601f19601f820116905080830192505050505050509192919290505050611d28565b604051808215151515815260200191505060405180910390f35b610a2f600480360360408110156108f557600080fd5b810190808035906020019064010000000081111561091257600080fd5b82018360208201111561092457600080fd5b8035906020019184600183028401116401000000008311171561094657600080fd5b91908080601f016020809104026020016040519081016040528093929190818152602001838380828437600081840152601f19601f820116905080830192505050505050509192919290803590602001906401000000008111156109a957600080fd5b8201836020820111156109bb57600080fd5b803590602001918460018302840111640100000000831117156109dd57600080fd5b91908080601f016020809104026020016040519081016040528093929190818152602001838380828437600081840152601f19601f820116905080830192505050505050509192919290505050611d36565b005b610a39611f10565b604051808215151515815260200191505060405180910390f35b610b0c60048036036020811015610a6957600080fd5b8101908080359060200190640100000000811115610a8657600080fd5b820183602082011115610a9857600080fd5b80359060200191846001830284011164010000000083111715610aba57600080fd5b91908080601f016020809104026020016040519081016040528093929190818152602001838380828437600081840152601f19601f8201169050808301925050505050505091929192905050506120f2565b604051808215151515815260200191505060405180910390f35b610bdf60048036036020811015610b3c57600080fd5b8101908080359060200190640100000000811115610b5957600080fd5b820183602082011115610b6b57600080fd5b80359060200191846001830284011164010000000083111715610b8d57600080fd5b91908080601f016020809104026020016040519081016040528093929190818152602001838380828437600081840152601f19601f82011690508083019250505050505050919291929050505061218e565b005b80610beb81611d28565b610c5d576040517f08c379a00000000000000000000000000000000000000000000000000000000081526004018080602001828103825260168152602001807f537472696e672063616e6e6f7420626520656d7074790000000000000000000081525060200191505060405180910390fd5b81610c67816120f2565b610cbc576040517f08c379a00000000000000000000000000000000000000000000000000000000081526004018080602001828103825260258152602001806124fa6025913960400191505060405180910390fd5b82610cc681610dbd565b610d1b576040517f08c379a00000000000000000000000000000000000000000000000000000000081526004018080602001828103825260298152602001806124a96029913960400191505060405180910390fd5b600080856040518082805190602001908083835b60208310610d525780518252602082019150602081019050602083039250610d2f565b6001836020036101000a0380198251168184511680821785525050505050509050019150509081526020016040518091039020905060028160000160006101000a81548160ff02191690836002811115610da857fe5b02179055504281600701819055505050505050565b60003373ffffffffffffffffffffffffffffffffffffffff166000836040518082805190602001908083835b60208310610e0c5780518252602082019150602081019050602083039250610de9565b6001836020036101000a038019825116818451168082178552505050505050905001915050908152602001604051809103902060020160009054906101000a900473ffffffffffffffffffffffffffffffffffffffff1673ffffffffffffffffffffffffffffffffffffffff16149050919050565b610e89611f10565b15610efc576040517f08c379a000000000000000000000000000000000000000000000000000000000815260040180806020018281038252601f8152602001807f596f75206d7573742066697273742063726561746520612070726f66696c650081525060200191505060405180910390fd5b80610f0681611d28565b610f78576040517f08c379a00000000000000000000000000000000000000000000000000000000081526004018080602001828103825260168152602001807f537472696e672063616e6e6f7420626520656d7074790000000000000000000081525060200191505060405180910390fd5b81610f82816115db565b610ff4576040517f08c379a00000000000000000000000000000000000000000000000000000000081526004018080602001828103825260188152602001807f506172747920697320616c72656164792063726561746564000000000000000081525060200191505060405180910390fd5b600080846040518082805190602001908083835b6020831061102b5780518252602082019150602081019050602083039250611008565b6001836020036101000a0380198251168184511680821785525050505050509050019150509081526020016040518091039020905060018160000160006101000a81548160ff0219169083600281111561108157fe5b0217905550428160010181905550338160020160006101000a81548173ffffffffffffffffffffffffffffffffffffffff021916908373ffffffffffffffffffffffffffffffffffffffff16021790555061012c81600101540181600701819055506001816003018190555050505050565b6110fb611f10565b1561116e576040517f08c379a000000000000000000000000000000000000000000000000000000000815260040180806020018281038252601f8152602001807f596f75206d7573742066697273742063726561746520612070726f66696c650081525060200191505060405180910390fd5b8161117881611d28565b6111ea576040517f08c379a00000000000000000000000000000000000000000000000000000000081526004018080602001828103825260168152602001807f537472696e672063616e6e6f7420626520656d7074790000000000000000000081525060200191505060405180910390fd5b826111f4816115db565b611266576040517f08c379a00000000000000000000000000000000000000000000000000000000081526004018080602001828103825260188152602001807f506172747920697320616c72656164792063726561746564000000000000000081525060200191505060405180910390fd5b600080856040518082805190602001908083835b6020831061129d578051825260208201915060208101905060208303925061127a565b6001836020036101000a0380198251168184511680821785525050505050509050019150509081526020016040518091039020905060018160000160006101000a81548160ff021916908360028111156112f357fe5b0217905550428160010181905550338160020160006101000a81548173ffffffffffffffffffffffffffffffffffffffff021916908373ffffffffffffffffffffffffffffffffffffffff160217905550603c84028160010154018160070181905550600181600301819055505050505050565b61136f611f10565b156113e2576040517f08c379a000000000000000000000000000000000000000000000000000000000815260040180806020018281038252601f8152602001807f596f75206d7573742066697273742063726561746520612070726f66696c650081525060200191505060405180910390fd5b826113ec81611d28565b61145e576040517f08c379a00000000000000000000000000000000000000000000000000000000081526004018080602001828103825260168152602001807f537472696e672063616e6e6f7420626520656d7074790000000000000000000081525060200191505060405180910390fd5b83611468816115db565b6114da576040517f08c379a00000000000000000000000000000000000000000000000000000000081526004018080602001828103825260188152602001807f506172747920697320616c72656164792063726561746564000000000000000081525060200191505060405180910390fd5b600080866040518082805190602001908083835b6020831061151157805182526020820191506020810190506020830392506114ee565b6001836020036101000a0380198251168184511680821785525050505050509050019150509081526020016040518091039020905060018160000160006101000a81548160ff0219169083600281111561156757fe5b0217905550428160010181905550338160020160006101000a81548173ffffffffffffffffffffffffffffffffffffffff021916908373ffffffffffffffffffffffffffffffffffffffff160217905550603c85028160010154018160070181905550838160030181905550505050505050565b60008060028111156115e957fe5b6000836040518082805190602001908083835b6020831061161f57805182526020820191506020810190506020830392506115fc565b6001836020036101000a038019825116818451168082178552505050505050905001915050908152602001604051809103902060000160009054906101000a900460ff16600281111561166e57fe5b149050919050565b6000600115156000836040518082805190602001908083835b602083106116b2578051825260208201915060208101905060208303925061168f565b6001836020036101000a038019825116818451168082178552505050505050905001915050908152602001604051809103902060060160003373ffffffffffffffffffffffffffffffffffffffff1673ffffffffffffffffffffffffffffffffffffffff16815260200190815260200160002060009054906101000a900460ff16151514159050919050565b611746611f10565b156117b9576040517f08c379a000000000000000000000000000000000000000000000000000000000815260040180806020018281038252601f8152602001807f596f75206d7573742066697273742063726561746520612070726f66696c650081525060200191505060405180910390fd5b806117c381611d28565b611835576040517f08c379a00000000000000000000000000000000000000000000000000000000081526004018080602001828103825260168152602001807f537472696e672063616e6e6f7420626520656d7074790000000000000000000081525060200191505060405180910390fd5b8161183f816120f2565b611894576040517f08c379a00000000000000000000000000000000000000000000000000000000081526004018080602001828103825260258152602001806124fa6025913960400191505060405180910390fd5b8261189e81610dbd565b156118f4576040517f08c379a00000000000000000000000000000000000000000000000000000000081526004018080602001828103825260288152602001806124d26028913960400191505060405180910390fd5b836118fe81611676565b611970576040517f08c379a000000000000000000000000000000000000000000000000000000000815260040180806020018281038252601c8152602001807f596f752061726520616c726561647920696e207468652070617274790000000081525060200191505060405180910390fd5b600080866040518082805190602001908083835b602083106119a75780518252602082019150602081019050602083039250611984565b6001836020036101000a0380198251168184511680821785525050505050509050019150509081526020016040518091039020905060008160040160008360050160008154809291906001019190505581526020019081526020016000209050428160010181905550338160000160006101000a81548173ffffffffffffffffffffffffffffffffffffffff021916908373ffffffffffffffffffffffffffffffffffffffff16021790555060018260060160003373ffffffffffffffffffffffffffffffffffffffff1673ffffffffffffffffffffffffffffffffffffffff16815260200190815260200160002060006101000a81548160ff02191690831515021790555050505050505050565b611abe611f10565b15611b31576040517f08c379a000000000000000000000000000000000000000000000000000000000815260040180806020018281038252601f8152602001807f596f75206d7573742066697273742063726561746520612070726f66696c650081525060200191505060405180910390fd5b81611b3b81611d28565b611bad576040517f08c379a00000000000000000000000000000000000000000000000000000000081526004018080602001828103825260168152602001807f537472696e672063616e6e6f7420626520656d7074790000000000000000000081525060200191505060405180910390fd5b82611bb7816115db565b611c29576040517f08c379a00000000000000000000000000000000000000000000000000000000081526004018080602001828103825260188152602001807f506172747920697320616c72656164792063726561746564000000000000000081525060200191505060405180910390fd5b600080856040518082805190602001908083835b60208310611c605780518252602082019150602081019050602083039250611c3d565b6001836020036101000a0380198251168184511680821785525050505050509050019150509081526020016040518091039020905060018160000160006101000a81548160ff02191690836002811115611cb657fe5b0217905550428160010181905550338160020160006101000a81548173ffffffffffffffffffffffffffffffffffffffff021916908373ffffffffffffffffffffffffffffffffffffffff16021790555061012c81600101540181600701819055508381600301819055505050505050565b600080825114159050919050565b611d3e611f10565b611d93576040517f08c379a000000000000000000000000000000000000000000000000000000000815260040180806020018281038252602281526020018061251f6022913960400191505060405180910390fd5b81611d9d81611d28565b611e0f576040517f08c379a00000000000000000000000000000000000000000000000000000000081526004018080602001828103825260168152602001807f537472696e672063616e6e6f7420626520656d7074790000000000000000000081525060200191505060405180910390fd5b81611e1981611d28565b611e8b576040517f08c379a00000000000000000000000000000000000000000000000000000000081526004018080602001828103825260168152602001807f537472696e672063616e6e6f7420626520656d7074790000000000000000000081525060200191505060405180910390fd5b6000600160003373ffffffffffffffffffffffffffffffffffffffff1673ffffffffffffffffffffffffffffffffffffffff168152602001908152602001600020905084816000019080519060200190611ee69291906123e2565b5083816001019080519060200190611eff9291906123e2565b504281600201819055505050505050565b6000611f1a612462565b600160003373ffffffffffffffffffffffffffffffffffffffff1673ffffffffffffffffffffffffffffffffffffffff168152602001908152602001600020604051806060016040529081600082018054600181600116156101000203166002900480601f016020809104026020016040519081016040528092919081815260200182805460018160011615610100020316600290048015611ffd5780601f10611fd257610100808354040283529160200191611ffd565b820191906000526020600020905b815481529060010190602001808311611fe057829003601f168201915b50505050508152602001600182018054600181600116156101000203166002900480601f01602080910402602001604051908101604052809291908181526020018280546001816001161561010002031660029004801561209f5780601f106120745761010080835404028352916020019161209f565b820191906000526020600020905b81548152906001019060200180831161208257829003601f168201915b505050505081526020016002820154815250509050600081600001515114156120e957600081602001515114156120e8576000816040015114156120e75760019150506120ef565b5b5b60009150505b90565b60006001600281111561210157fe5b6000836040518082805190602001908083835b602083106121375780518252602082019150602081019050602083039250612114565b6001836020036101000a038019825116818451168082178552505050505050905001915050908152602001604051809103902060000160009054906101000a900460ff16600281111561218657fe5b149050919050565b8061219881611d28565b61220a576040517f08c379a00000000000000000000000000000000000000000000000000000000081526004018080602001828103825260168152602001807f537472696e672063616e6e6f7420626520656d7074790000000000000000000081525060200191505060405180910390fd5b81612214816120f2565b612269576040517f08c379a00000000000000000000000000000000000000000000000000000000081526004018080602001828103825260258152602001806124fa6025913960400191505060405180910390fd5b8261227381610dbd565b6122c8576040517f08c379a00000000000000000000000000000000000000000000000000000000081526004018080602001828103825260298152602001806124a96029913960400191505060405180910390fd5b600080856040518082805190602001908083835b602083106122ff57805182526020820191506020810190506020830392506122dc565b6001836020036101000a0380198251168184511680821785525050505050509050019150509081526020016040518091039020905060008160040160008360050160008154809291906001019190505581526020019081526020016000209050428160010181905550338160000160006101000a81548173ffffffffffffffffffffffffffffffffffffffff021916908373ffffffffffffffffffffffffffffffffffffffff16021790555060028260000160006101000a81548160ff021916908360028111156123cc57fe5b0217905550428260070181905550505050505050565b828054600181600116156101000203166002900490600052602060002090601f016020900481019282601f1061242357805160ff1916838001178555612451565b82800160010185558215612451579182015b82811115612450578251825591602001919060010190612435565b5b50905061245e9190612483565b5090565b60405180606001604052806060815260200160608152602001600081525090565b6124a591905b808211156124a1576000816000905550600101612489565b5090565b9056fe596f75206d7573742062652074686520706172747927732063726561746f7220746f2061636365737350617274792063726561746f722063616e6e6f7420626520616464656420617320612067756573745061727479206973206e6f7420696e2074686520496e697469616c697a6564207374617465596f75206861766520616c7265616479206372656174656420612070726f66696c65a165627a7a72305820261fe11705a9e172a82ef50bca417a1c1d5a5bed79dd49ee70d05b4ab4c53a090029",
  "source": "pragma solidity ^0.5.7;\n\n/// @author Michael Smith, Evan Steiner, Ezra Huston\n/// @title A simple consent-saving contract\n// gas limit: minimum of 3148090 to deploy contract\ncontract ConsentContract {\n\tenum ContractState { DoesNotExist, Initialized, Finalized }\n\n\tstruct Party {\n    \tContractState state;\n    \tuint256 startTime;\n    \taddress owner;\n    \tuint256 maxUsersPermitted;\n    \tmapping(uint256 => ConsentingUser) consentingUsers;\n    \tuint256 guestsInParty;\n    \tmapping(address => bool) added;\n    \tuint256 closeTime;\n\t}\n\n\tstruct ConsentingUser {\n    \taddress userAddress;\n    \tuint256 timeAdded;\n\t}\n\n\tstruct Profile {\n\t\tstring firstName;\n\t\tstring lastName;\n    \tuint256 timeCreated;\n\t}\n\n\tmapping(string => Party) parties;\n\tmapping(address => Profile) profiles;\n\n\n\t// constructor function\n\tconstructor() public {}\n\n\n\t// fallback function\n\tfunction() external {}\n\n\n\tmodifier profileDoesNotExistModifier {\n\t    require(\n        \tprofileDoesNotExist(),\n        \t\"You have already created a profile\"\n    \t);\n    \t_;\n\t}\n\n\tmodifier profileExistsModifier {\n\t    require(\n        \t!profileDoesNotExist(),\n        \t\"You must first create a profile\"\n    \t);\n    \t_;\n\t}\n\n\tmodifier notStringEmptyModifier(string memory inputString) {\n\t    require(\n\t        notStringEmpty(inputString),\n\t        \"String cannot be empty\"\n\t    );\n\t    _;\n\t}\n\n\tmodifier partyDoesNotExistModifier(string memory partyName) {\n    \trequire(\n        \tpartyDoesNotExist(partyName),\n        \t\"Party is already created\"\n    \t);\n    \t_;\n\t}\n\n\tmodifier partyInitializedModifier(string memory partyName) {\n    \trequire(\n        \tpartyInitialized(partyName),\n        \t\"Party is not in the Initialized state\"\n    \t);\n    \t_;\n\t}\n\n\tmodifier partyOwnerModifier(string memory partyName) {\n    \trequire(\n        \tpartyOwner(partyName),\n        \t\"You must be the party's creator to access\"\n    \t);\n    \t_;\n\t}\n\n\tmodifier notPartyOwnerModifier(string memory partyName) {\n    \trequire(\n        \t!partyOwner(partyName),\n        \t\"Party creator cannot be added as a guest\"\n    \t);\n    \t_;\n\t}\n\n\tmodifier notYetAddedToPartyModifier(string memory partyName) {\n\t    require(\n            notYetAddedToParty(partyName),\n        \t\"You are already in the party\"\n    \t);\n    \t_;\n\t}\n\n\t// Step 0.\n\t//  Create a profile with:\n\t//  - first name.\n\t//  - last name.\n\tfunction createProfile(string memory fName, string memory lName)\n    \tpublic\n    \tprofileDoesNotExistModifier\n    \tnotStringEmptyModifier(fName)\n    \tnotStringEmptyModifier(lName)\n\t{\n    \tProfile storage currUser = profiles[msg.sender];\n\n    \tcurrUser.firstName = fName;\n    \tcurrUser.lastName = lName;\n    \tcurrUser.timeCreated = now;\n\t}\n\n\t// Step 1a.\n\t//   Alice creates the party with:\n\t//   - default closeTime of 5 minutes.\n\t//   - default maxGuests of 1.\n\tfunction createParty1A(string memory partyName)\n    \tpublic\n    \tprofileExistsModifier\n    \tnotStringEmptyModifier(partyName)\n    \tpartyDoesNotExistModifier(partyName)\n\t{\n    \tParty storage party1a = parties[partyName];\n\n    \tparty1a.state = ContractState.Initialized;\n    \tparty1a.startTime = now;\n    \tparty1a.owner = msg.sender;\n\n    \tparty1a.closeTime = party1a.startTime + 5 minutes; // now + 5 minutes\n    \tparty1a.maxUsersPermitted = 1;\n\t}\n\n\t// Step 1b.\n\t//   Alice creates the party with:\n\t//   - a specified closeTime of x (in minutes).\n\t//   - default maxGuests of 1.\n\tfunction createParty1B(string memory partyName, uint256 closeTimeInMinutes)\n    \tpublic\n    \tprofileExistsModifier\n    \tnotStringEmptyModifier(partyName)\n    \tpartyDoesNotExistModifier(partyName)\n\t{\n    \tParty storage party1b = parties[partyName];\n\n    \tparty1b.state = ContractState.Initialized;\n    \tparty1b.startTime = now;\n    \tparty1b.owner = msg.sender;\n\n    \tparty1b.closeTime = party1b.startTime + (closeTimeInMinutes * 1 minutes); // now + x minutes.\n    \tparty1b.maxUsersPermitted = 1;\n\t}\n\n\t// Step 1c.\n\t//  Alice creates the party with:\n\t//  - default closeTime of 5 minutes.\n\t//  - a max of y number of guests permitted.\n\tfunction createParty1C(string memory partyName, uint256 maxNumberOfGuests)\n    \tpublic\n    \tprofileExistsModifier\n    \tnotStringEmptyModifier(partyName)\n    \tpartyDoesNotExistModifier(partyName)\n\t{\n    \tParty storage party1c = parties[partyName];\n\n    \tparty1c.state = ContractState.Initialized;\n    \tparty1c.startTime = now;\n    \tparty1c.owner = msg.sender;\n\n    \tparty1c.closeTime = party1c.startTime + 5 minutes; // now + 5 minutes\n    \tparty1c.maxUsersPermitted = maxNumberOfGuests;\n\t}\n\n\t// Step 1d=(1b & 1c).\n\t//  Alice creates the party with:\n\t//  - a specified closeTime of x (in minutes).\n\t//  - a max of y number of guests permitted.\n\tfunction createParty1D(string memory partyName, uint256 closeTimeInMinutes, uint256 maxNumberOfGuests)\n    \tpublic\n    \tprofileExistsModifier\n    \tnotStringEmptyModifier(partyName)\n    \tpartyDoesNotExistModifier(partyName)\n\t{\n    \tParty storage party1d = parties[partyName];\n\n    \tparty1d.state = ContractState.Initialized;\n    \tparty1d.startTime = now;\n    \tparty1d.owner = msg.sender;\n\n    \tparty1d.closeTime = party1d.startTime + (closeTimeInMinutes * 1 minutes);\n    \tparty1d.maxUsersPermitted = maxNumberOfGuests;\n\t}\n\n\t// Step 2.\n\t//  Alice invites Bob to join the party by sending the partyName string.\n\n\t// Step 3.\n\t//  Bob joins the party (consents to party).\n\tfunction addGuestToParty(string memory partyName)\n    \tpublic\n    \tprofileExistsModifier\n    \tnotStringEmptyModifier(partyName)\n    \tpartyInitializedModifier(partyName)\n    \tnotPartyOwnerModifier(partyName)\n    \tnotYetAddedToPartyModifier(partyName)\n\t{\n    \tParty storage party3 = parties[partyName];\n    \tConsentingUser storage guest = party3.consentingUsers[party3.guestsInParty++];\n\n    \tguest.timeAdded = now;\n    \tguest.userAddress = msg.sender;\n    \tparty3.added[msg.sender] = true;\n\t}\n\n\t// Step 4a.\n\t//  Alice consents to the party.\n\t//  - party is finalized.\n\tfunction ownerConsents(string memory partyName)\n    \tpublic\n    \tnotStringEmptyModifier(partyName)\n    \tpartyInitializedModifier(partyName)\n    \tpartyOwnerModifier(partyName)\n\t{\n\t    Party storage party4 = parties[partyName];\n    \tConsentingUser storage partyCreator = party4.consentingUsers[party4.guestsInParty++];\n\n    \tpartyCreator.timeAdded = now;\n    \tpartyCreator.userAddress = msg.sender;\n\n    \tparty4.state = ContractState.Finalized;\n    \tparty4.closeTime = now;\n\t}\n\n\t// Step 4b.\n\t//  Alice cancels her consent.\n\t//  - party is finalized.\n\tfunction ownerCancels(string memory partyName)\n    \tpublic\n    \tnotStringEmptyModifier(partyName)\n    \tpartyInitializedModifier(partyName)\n    \tpartyOwnerModifier(partyName)\n\t{\n    \tParty storage party4 = parties[partyName];\n\n    \tparty4.state = ContractState.Finalized;\n    \tparty4.closeTime = now;\n\t}\n\n\tfunction profileDoesNotExist()\n\t    public\n\t    view\n\t    returns (bool)\n\t{\n\t    Profile memory profile = profiles[msg.sender];\n\n\t    if (bytes(profile.firstName).length == 0)\n        \tif (bytes(profile.lastName).length == 0)\n        \t    if (profile.timeCreated == 0)\n        \t        return true;\n    \treturn false;\n\t}\n\n\tfunction partyDoesNotExist(string memory partyName)\n\t    public\n\t    view\n\t    returns (bool)\n\t{\n\t    return (parties[partyName].state == ContractState.DoesNotExist);\n\t}\n\n\tfunction partyInitialized(string memory partyName)\n\t    public\n\t    view\n\t    returns (bool)\n\t{\n\t    return (parties[partyName].state == ContractState.Initialized);\n\t}\n\n\tfunction partyOwner(string memory partyName)\n\t    public\n\t    view\n\t    returns (bool)\n\t{\n\t    return (parties[partyName].owner == msg.sender);\n\t}\n\n\tfunction notYetAddedToParty(string memory partyName)\n\t    public\n\t    view\n\t    returns (bool)\n\t{\n\t    return (parties[partyName].added[msg.sender] != true);\n\t}\n\n\tfunction notStringEmpty(string memory inputString)\n\t    public\n\t    pure\n\t    returns (bool)\n\t{\n\t    return (bytes(inputString).length != 0);\n\t}\n}\n",
  "sourcePath": "/s/bach/g/under/evanjs/Documents/Senior/CS481A3/consent-contract/ethereum/contracts/ConsentContract.sol",
  "compiler": {
    "name": "solc",
    "version": "0.5.7+commit.6da8b019.Emscripten.clang"
  },
  "schemaVersion": "3.0.6",
  "updatedAt": "2019-04-24T15:21:47.257Z",
  "devdoc": {
    "author": "Michael Smith, Evan Steiner, Ezra Huston",
    "methods": {},
    "title": "A simple consent-saving contract"
  },
  "userdoc": {
    "methods": {}
  }
}